:020000020000FC
:040000000C94CD107F
:040038000C946D00B7
:04002C000C94C5006B
:100068002A2A2A2056657273696F6E20302E302036
:100078002D2032303136204F63742032202A2A2A2C
:100088001A00437265617469766520436F6D6D6F00
:100098006E73204174747269627574696F6E2D4E47
:1000A8006F6E436F6D6D65726369616C2D53686126
:1000B8007265416C696B6520342E3020496E746519
:1000C800726E6174696F6E616C204C6963656E73E2
:1000D80065000F931F932F937FB600915103199BCF
:1000E80000950F73000F000F19B11370012B0BB996
:1000F80000915103199B07C02D9A07FF2D982C9A40
:1001080006FF2C9806C02D9807FF2D9A2C9806FFFD
:100118002C9A26B12F73109155032093550312275B
:1001280010935A031095122310935B0310914F03F9
:1001380000915A03102300915B03102B00914F0389
:1001480000935B0310934F03122F109500915A03ED
:10015800102300915703012B00935703122F00918E
:100168005A03102300915603012B10935603009154
:1001780058031027109358037FBE2F911F910F919A
:1001880018950F931F937FB68160986011E09127AF
:100198008A9429F406E0802E826012E091279A94CE
:1001A80029F402E1902E846014E0912780FF82C137
:1001B8001091300312FF14C0009120030A95009398
:1001C800200371F40AE000932003009110030A95BC
:1001D8000093100329F4E89410F912F910933003EE
:1001E8001091300316FF14C0009121030A95009363
:1001F800210371F40AE000932103009111030A9589
:100208000093110329F4E89414F916F910933003B4
:100218001091310312FF14C0009122030A95009334
:10022800220371F40AE000932203009112030A9555
:100238000093120329F4E89410F912F9109331038A
:100248001091310316FF14C0009123030A950093FF
:10025800230371F40AE000932303009113030A9522
:100268000093130329F4E89414F916F91093310351
:100278001091320312FF14C0009124030A950093D1
:10028800240371F40AE000932403009114030A95EF
:100298000093140329F4E89410F912F91093320327
:1002A8001091320316FF14C0009125030A9500939C
:1002B800250371F40AE000932503009115030A95BC
:1002C8000093150329F4E89414F916F910933203EE
:1002D8001091330312FF14C0009126030A9500936E
:1002E800260371F40AE000932603009116030A9589
:1002F8000093160329F4E89410F912F910933303C4
:100308001091330316FF14C0009127030A95009338
:10031800270371F40AE000932703009117030A9555
:100328000093170329F4E89414F916F9109333038A
:100338001091340312FF14C0009128030A9500930A
:10034800280371F40AE000932803009118030A9522
:100358000093180329F4E89410F912F91093340360
:100368001091340316FF14C0009129030A950093D5
:10037800290371F40AE000932903009119030A95EF
:100388000093190329F4E89414F916F91093340327
:100398001091350312FF14C000912A030A950093A7
:1003A8002A0371F40AE000932A0300911A030A95BC
:1003B80000931A0329F4E89410F912F910933503FD
:1003C8001091350316FF14C000912B030A95009372
:1003D8002B0371F40AE000932B0300911B030A9589
:1003E80000931B0329F4E89414F916F910933503C4
:1003F80081FF60C01091360312FF14C000912C03D6
:100408000A9500932C0371F404E600932C030091E1
:100418001C030A9500931C0329F4E89410F912F9B7
:10042800109336031091360316FF14C000912D0364
:100438000A9500932D0371F404E600932D030091AF
:100448001D030A9500931D0329F4E89414F916F97D
:10045800109336031091370312FF14C000912E0336
:100468000A9500932E0371F404E600932E0300917D
:100478001E030A9500931E0329F4E89410F912F953
:10048800109337031091370316FF14C000912F0300
:100498000A9500932F0371F404E600932F0300914B
:1004A8001F030A9500931F0329F4E89414F916F919
:1004B800109337038C7F7FBE1F910F9118950E9470
:1004C800AE120E94B61288279927289A299A249A48
:1004D800259A0FE308B90CEF0AB905E005BD02E05B
:1004E80004BD00E407BD00916E00026000936E0039
:1004F8000CE00093810008E11AE60093890010934C
:10050800880000916F00026000936F0006E0802E63
:100518008B7F02E1902E8B7F0895F89400E0009382
:10052800C50003E30093C40006E00093C20008E19D
:100538000093C1007894089501E0402E00E0502E09
:100548000027009340030093410300934903089553
:1005580044524F500017B4020000FBFF6694089500
:10056800434C5217BD020000FCFF66948894660C49
:10057800089544555017CC020000FCFF669420F4FF
:10058800661C0894661C0895661C8894661C089569
:1005980053455417D5020000FCFF66940894661C66
:1005A80008954F520017E2020000FCFF062D069541
:1005B8000629669466940695661C0895414E44176C
:1005C800EF020000FCFF062D06950621669466944E
:1005D8000695661C08952117FB020000FDFF66942E
:1005E80018F48894661C08950894661C08952121BF
:1005F800001703030000FCFF0F6F60260895584F93
:10060800521710030000FCFF062D06950625669478
:1006180066940695661C089550412E17180300002D
:10062800FCFF60904F03089550552E1720030000DB
:10063800FCFF60905303089550562E1728030000BE
:10064800FCFF60905403089550592E1730030000A2
:10065800FCFF6090510308952E50411738030000A5
:10066800FCFF60924F0308952E5055174003000079
:10067800FCFF6092530308952E505617480300005C
:10068800FCFF6092540308952E5059175003000040
:10069800FCFF609251030895434C4B412E175C03B5
:1006A8000000FBFF90FB08940EF08894661C0895E8
:1006B800434C4B422E1768030000FBFF91FB089444
:1006C8000EF08894661C0895434C4B432E17740310
:1006D8000000FBFF92FB08940EF08894661C0895B6
:1006E80041302E1781030000FCFF00914F0300FBEF
:1006F80008940EF08894661C089541312E178E03D5
:100708000000FCFF00914F0301FB08940EF0889451
:10071800661C089541322E179B030000FCFF0091D0
:100728004F0302FB08940EF08894661C0895413329
:100738002E17A8030000FCFF00914F0303FB089449
:100748000EF08894661C089541342E17B5030000F6
:10075800FCFF00914F0304FB08940EF08894661C7C
:10076800089541352E17C2030000FCFF00914F0386
:1007780005FB08940EF08894661C089541362E17E0
:10078800CF030000FCFF00914F0306FB08940EF016
:100798008894661C089541372E17DC030000FCFF7F
:1007A80000914F0307FB08940EF08894661C089587
:1007B800414C302E0017F8030000FBFF00916E003B
:1007C8000E7F00936E000091560300FB08940EF014
:1007D8008894661CE89400F90093560300916E0013
:1007E800016000936E000895414C312E00171404E7
:1007F8000000FBFF00916E000E7F00936E000091D9
:10080800560301FB08940EF08894661CE89401F9DD
:100818000093560300916E00016000936E000895E6
:10082800414C322E001730040000FBFF00916E008F
:100838000E7F00936E000091560302FB08940EF0A1
:100848008894661CE89402F90093560300916E00A0
:10085800016000936E000895414C332E00174C043C
:100868000000FBFF00916E000E7F00936E00009168
:10087800560303FB08940EF08894661CE89403F969
:100888000093560300916E00016000936E00089576
:10089800414C342E001768040000FBFF00916E00E5
:1008A8000E7F00936E000091560304FB08940EF02F
:1008B8008894661CE89404F90093560300916E002E
:1008C800016000936E000895414C352E0017840492
:1008D8000000FBFF00916E000E7F00936E000091F8
:1008E800560305FB08940EF08894661CE89405F9F5
:1008F8000093560300916E00016000936E00089506
:10090800414C362E0017A0040000FBFF00916E003A
:100918000E7F00936E000091560306FB08940EF0BC
:100928008894661CE89406F90093560300916E00BB
:10093800016000936E000895414C372E0017BC04E7
:100948000000FBFF00916E000E7F00936E00009187
:10095800560307FB08940EF08894661CE89407F980
:100968000093560300916E00016000936E00089595
:100978004154302E0017D8040000FBFF00916E0090
:100988000E7F00936E000091570300FB08940EF051
:100998008894661CE89400F90093570300916E0050
:1009A800016000936E0008954154312E0017F4043D
:1009B8000000FBFF00916E000E7F00936E00009117
:1009C800570301FB08940EF08894661CE89401F91B
:1009D8000093570300916E00016000936E00089524
:1009E8004154322E001710050000FBFF00916E00E5
:1009F8000E7F00936E000091570302FB08940EF0DF
:100A08008894661CE89402F90093570300916E00DD
:100A1800016000936E0008954154332E00172C0591
:100A28000000FBFF00916E000E7F00936E000091A6
:100A3800570303FB08940EF08894661CE89403F9A6
:100A48000093570300916E00016000936E000895B3
:100A58004154342E001748050000FBFF00916E003A
:100A68000E7F00936E000091570304FB08940EF06C
:100A78008894661CE89404F90093570300916E006B
:100A8800016000936E0008954154352E00176405E7
:100A98000000FBFF00916E000E7F00936E00009136
:100AA800570305FB08940EF08894661CE89405F932
:100AB8000093570300916E00016000936E00089543
:100AC8004154362E001780050000FBFF00916E0090
:100AD8000E7F00936E000091570306FB08940EF0FA
:100AE8008894661CE89406F90093570300916E00F9
:100AF800016000936E0008954154372E00179C053D
:100B08000000FBFF00916E000E7F00936E000091C5
:100B1800570307FB08940EF08894661CE89407F9BD
:100B28000093570300916E00016000936E000895D2
:100B38004144302E0017AA050000FBFF009158031E
:100B480000FB08940EF08894661C08954144312EE9
:100B58000017B8050000FBFF0091580301FB08943B
:100B68000EF08894661C08954144322E0017C6057D
:100B78000000FBFF0091580302FB08940EF08894D4
:100B8800661C08954144332E0017D4050000FBFF6E
:100B98000091580303FB08940EF08894661C08958E
:100BA8004144342E0017E2050000FBFF0091580372
:100BB80004FB08940EF08894661C08954144352E71
:100BC8000017F0050000FBFF0091580305FB08948F
:100BD8000EF08894661C08954144362E0017FE05D1
:100BE8000000FBFF0091580306FB08940EF0889460
:100BF800661C08954144372E00170C060000FBFFC1
:100C08000091580307FB08940EF08894661C089519
:100C180055302E1719060000FCFF0091530300FB06
:100C280008940EF08894661C089555312E172606F0
:100C38000000FCFF0091530301FB08940EF0889418
:100C4800661C089555322E1733060000FCFF0091EC
:100C5800530302FB08940EF08894661C08955533DC
:100C68002E1740060000FCFF0091530303FB089475
:100C78000EF08894661C089555342E174D06000012
:100C8800FCFF0091530304FB08940EF08894661C43
:100C9800089555352E175A060000FCFF009153039E
:100CA80005FB08940EF08894661C089555362E1797
:100CB80067060000FCFF0091530306FB08940EF042
:100CC8008894661C089555372E1774060000FCFF9B
:100CD8000091530307FB08940EF08894661C08954E
:100CE8002E55301783060000FCFF6694E89408F43C
:100CF80068940091530300F90093530308952E5507
:100D0800311792060000FCFF6694E89408F4689492
:100D18000091530301F90093530308952E55321798
:100D2800A1060000FCFF6694E89408F4689400911A
:100D3800530302F90093530308952E553317B00651
:100D48000000FCFF6694E89408F46894009153034B
:100D580003F90093530308952E553417BF06000076
:100D6800FCFF6694E89408F468940091530304F92E
:100D78000093530308952E553517CE060000FCFF47
:100D88006694E89408F468940091530305F9009375
:100D9800530308952E553617DD060000FCFF6694B0
:100DA800E89408F468940091530306F900935303F8
:100DB80008952E553717EC060000FCFF6694E8945A
:100DC80008F468940091530307F9009353030895B6
:100DD80056302E17F9060000FCFF0091540300FB63
:100DE80008940EF08894661C089556312E1706074D
:100DF8000000FCFF0091540301FB08940EF0889456
:100E0800661C089556322E1713070000FCFF009148
:100E1800540302FB08940EF08894661C0895563318
:100E28002E1720070000FCFF0091540303FB0894D1
:100E38000EF08894661C089556342E172D0700006E
:100E4800FCFF0091540304FB08940EF08894661C80
:100E5800089556352E173A070000FCFF00915403F9
:100E680005FB08940EF08894661C089556362E17D4
:100E780047070000FCFF0091540306FB08940EF09E
:100E88008894661C089556372E1754070000FCFFF7
:100E98000091540307FB08940EF08894661C08958B
:100EA8002E56301763070000FCFF6694E89408F498
:100EB80068940091540300F90093540308952E5642
:100EC800311772070000FCFF6694E89408F46894F0
:100ED8000091540301F90093540308952E563217D4
:100EE80081070000FCFF6694E89408F46894009178
:100EF800540302F90093540308952E5633179007AC
:100F08000000FCFF6694E89408F468940091540388
:100F180003F90093540308952E5634179F070000D1
:100F2800FCFF6694E89408F468940091540304F96B
:100F38000093540308952E563517AE070000FCFFA2
:100F48006694E89408F468940091540305F90093B2
:100F5800540308952E563617BD070000FCFF66940B
:100F6800E89408F468940091540306F90093540334
:100F780008952E563717CC070000FCFF6694E894B6
:100F880008F468940091540307F9009354030895F2
:100F98002E593017DB070000FCFF6694E89408F42C
:100FA80068940091510300F90093510308952E5954
:100FB8003117EA070000FCFF6694E89408F4689487
:100FC8000091510301F90093510308952E593217E6
:100FD800F9070000FCFF6694E89408F4689400910F
:100FE800510302F90093510308952E593317080845
:100FF8000000FCFF6694E89408F46894009151039B
:1010080003F90093510308952E5934171708000067
:10101800FCFF6694E89408F468940091510304F97D
:101028000093510308952E59351726080000FCFF38
:101038006694E89408F468940091510305F90093C4
:10104800510308952E59361735080000FCFF6694A1
:10105800E89408F468940091510306F90093510349
:1010680008952E59371744080000FCFF6694E89449
:1010780008F468940091510307F900935103089507
:1010880051302E1751080000FCFF00915E0300FB51
:1010980008940EF08894661C089551312E175E0846
:1010A8000000FCFF00915E0301FB08940EF0889499
:1010B800661C089551322E176B080000FCFF009142
:1010C8005E0302FB08940EF08894661C0895513361
:1010D8002E1778080000FCFF00915E0303FB0894BC
:1010E8000EF08894661C089551342E178508000068
:1010F800FCFF00915E0304FB08940EF08894661CC4
:10110800089551352E1792080000FCFF00915E03E8
:1011180005FB08940EF08894661C089551362E1726
:101128009F080000FCFF00915E0306FB08940EF088
:101138008894661C089551372E17AC080000FCFFF0
:1011480000915E0307FB08940EF08894661C0895CE
:101158002E533017BB080000FCFF6694E89408F48F
:10116800689400915C0300F900935C0308952E5382
:101178003117CA080000FCFF6694E89408F46894E4
:1011880000915C0301F900935C0308952E53321714
:10119800D9080000FCFF6694E89408F4689400916C
:1011A8005C0302F900935C0308952E533317E80893
:1011B8000000FCFF6694E89408F4689400915C03CE
:1011C80003F900935C0308952E533417F7080000C1
:1011D800FCFF6694E89408F4689400915C0304F9B1
:1011E80000935C0308952E53351706090000FCFF91
:1011F8006694E89408F4689400915C0305F90093F8
:101208005C0308952E53361715090000FCFF6694F9
:10121800E89408F4689400915C0306F900935C0371
:1012280008952E53371724090000FCFF6694E894AC
:1012380008F4689400915C0307F900935C0308952F
:101248002E52301733090000FCFF6694E89408F426
:10125800689400915D0300F900935D0308952E5290
:10126800311742090000FCFF6694E89408F468947A
:1012780000915D0301F900935D0308952E52321722
:1012880051090000FCFF6694E89408F46894009102
:101298005D0302F900935D0308952E523317600928
:1012A8000000FCFF6694E89408F4689400915D03DC
:1012B80003F900935D0308952E5234176F09000057
:1012C800FCFF6694E89408F4689400915D0304F9BF
:1012D80000935D0308952E5235177E090000FCFF28
:1012E8006694E89408F4689400915D0305F9009306
:1012F8005D0308952E5236178D090000FCFF669491
:10130800E89408F4689400915D0306F900935D037E
:1013180008952E5237179C090000FCFF6694E89444
:1013280008F4689400915D0307F900935D0308953C
:1013380051382E17A9090000FCFF0091610300FB3A
:1013480008940EF08894661C089551392E17B60932
:101358000000FCFF0091610301FB08940EF08894E3
:10136800661C089551412E17C3090000FCFF009127
:10137800610302FB08940EF08894661C089551429C
:101388002E17D0090000FCFF0091610303FB0894AD
:101398000EF08894661C089551432E17DD0900004D
:1013A800FCFF0091610304FB08940EF08894661C0E
:1013B800089551442E17EA090000FCFF00916103CB
:1013C80005FB08940EF08894661C089551452E1765
:1013D800F7090000FCFF0091610306FB08940EF07A
:1013E8008894661C089551462E17040A0000FCFFD5
:1013F8000091610307FB08940EF08894661C089519
:101408002E533817130A0000FCFF6694E89408F47A
:10141800689400915F0300F900935F0308952E53C9
:101428003917220A0000FCFF6694E89408F46894CF
:1014380000915F0301F900935F0308952E5341174C
:10144800310A0000FCFF6694E89408F4689400915F
:101458005F0302F900935F0308952E534217400A71
:101468000000FCFF6694E89408F4689400915F0318
:1014780003F900935F0308952E5343174F0A0000A2
:10148800FCFF6694E89408F4689400915F0304F9FB
:1014980000935F0308952E5344175E0A0000FCFF73
:1014A8006694E89408F4689400915F0305F9009342
:1014B8005F0308952E5345176D0A0000FCFF6694DC
:1014C800E89408F4689400915F0306F900935F03B9
:1014D80008952E5346177C0A0000FCFF6694E89492
:1014E80008F4689400915F0307F900935F03089577
:1014F8002E5238178B0A0000FCFF6694E89408F413
:1015080068940091600300F90093600308952E52D7
:1015180039179A0A0000FCFF6694E89408F4689466
:101528000091600301F90093600308952E5241175A
:10153800A90A0000FCFF6694E89408F468940091F6
:10154800600302F90093600308952E524217B80A07
:101558000000FCFF6694E89408F468940091600326
:1015680003F90093600308952E524317C70A000039
:10157800FCFF6694E89408F468940091600304F909
:101588000093600308952E524417D60A0000FCFF0A
:101598006694E89408F468940091600305F9009350
:1015A800600308952E524517E50A0000FCFF669473
:1015B800E89408F468940091600306F900936003C6
:1015C80008952E524617F40A0000FCFF6694E8942A
:1015D80008F468940091600307F900936003089584
:1015E8005451302E0017020B0000FBFF009130030E
:1015F80000FB08940EF08894661C08955451312E0F
:101608000017100B0000FBFF0091300304FB089447
:101618000EF08894661C08955451322E00171E0B44
:101628000000FBFF0091310300FB08940EF0889442
:10163800661C08955451332E00172C0B0000FBFF35
:101648000091310304FB08940EF08894661C0895F9
:101658005451342E00173A0B0000FBFF009132035F
:1016680000FB08940EF08894661C08955451352E9A
:101678000017480B0000FBFF0091320304FB08949D
:101688000EF08894661C08955451362E0017560B98
:101698000000FBFF0091330300FB08940EF08894D0
:1016A800661C08955451372E0017640B0000FBFF89
:1016B8000091330304FB08940EF08894661C089587
:1016C8002E5452300017750B0000FBFF669408F08B
:1016D800089500913003E89400F902F9009330036B
:1016E80008952E5452310017860B0000FBFF6694B4
:1016F80008F0089500913003E89404F906F900937E
:10170800300308952E5452320017970B0000FBFF48
:10171800669408F0089500913103E89400F902F9FD
:101728000093310308952E5452330017A80B00007C
:10173800FBFF669408F0089500913103E89404F9DA
:1017480006F90093310308952E5452340017B90B4B
:101758000000FBFF669408F0089500913203E894B6
:1017680000F902F90093320308952E5452350017F8
:10177800CA0B0000FBFF669408F00895009132033D
:10178800E89404F906F90093320308952E5452366A
:101798000017DB0B0000FBFF669408F0089500912A
:1017A8003303E89400F902F90093330308952E54A3
:1017B80052370017EC0B0000FBFF669408F0089501
:1017C80000913303E89404F906F90093330308956C
:1017D8002E544B300017070C0000FBFF669490F462
:1017E80000910003002371F00AE0009320030091A8
:1017F80000030093100300913003689400F902F984
:101808000093300308952E544B310017220C00002A
:10181800FBFF669490F400910103002371F00AE045
:1018280000932103009101030093110300913003F9
:10183800689404F906F90093300308952E544B3246
:1018480000173D0C0000FBFF669490F40091020322
:10185800002371F00AE00093220300910203009331
:10186800120300913103689400F902F900933103DF
:1018780008952E544B330017580C0000FBFF669454
:1018880090F400910303002371F00AE0009323030E
:10189800009103030093130300913103689404F942
:1018A80006F90093310308952E544B340017730C36
:1018B8000000FBFF669490F400910403002371F08C
:1018C8000AE0009324030091040300931403009199
:1018D8003203689400F902F90093320308952E54F4
:1018E8004B3500178E0C0000FBFF669490F40091B6
:1018F8000503002371F00AE0009325030091050316
:101908000093150300913203689404F906F90093D3
:10191800320308952E544B360017A90C0000FBFF24
:10192800669490F400910603002371F00AE0009396
:10193800260300910603009316030091330368946D
:1019480000F902F90093330308952E544B3700171A
:10195800C40C0000FBFF669490F400910703002379
:1019680071F00AE00093270300910703009317031F
:1019780000913303689404F906F90093330308953A
:101988005451382E0017D20C0000FBFF009134038D
:1019980000FB08940EF08894661C08955451392E63
:1019A8000017E00C0000FBFF0091340304FB0894CF
:1019B8000EF08894661C08955451412E0017EE0CC1
:1019C8000000FBFF0091350300FB08940EF088949B
:1019D800661C08955451422E0017FC0C0000FBFFB2
:1019E8000091350304FB08940EF08894661C089552
:1019F8005451432E00170A0D0000FBFF00913603D7
:101A080000FB08940EF08894661C08955451442EE7
:101A18000017180D0000FBFF0091360304FB089423
:101A28000EF08894661C08955451452E0017260D13
:101A38000000FBFF0091370300FB08940EF0889428
:101A4800661C08955451462E0017340D0000FBFF04
:101A58000091370304FB08940EF08894661C0895DF
:101A68002E5452380017450D0000FBFF669408F00D
:101A7800089500913403E89400F902F900933403BF
:101A880008952E5452390017560D0000FBFF669436
:101A980008F0089500913403E89404F906F90093D6
:101AA800340308952E5452410017670D0000FBFFC0
:101AB800669408F0089500913503E89400F902F956
:101AC8000093350308952E5452420017780D0000F4
:101AD800FBFF669408F0089500913503E89404F933
:101AE80006F90093350308952E5452430017890DC3
:101AF8000000FBFF669408F0089500913603E8940F
:101B080000F902F90093360308952E545244001741
:101B18009A0D0000FBFF669408F0089500913603C3
:101B2800E89404F906F90093360308952E545245B3
:101B38000017AB0D0000FBFF669408F008950091B4
:101B48003703E89400F902F90093370308952E54F7
:101B580052460017BC0D0000FBFF669408F008957C
:101B680000913703E89404F906F9009337030895C0
:101B78002E544B380017D70D0000FBFF669490F4E5
:101B880000910803002371F00AE0009328030091F4
:101B980008030093180300913403689400F902F9CC
:101BA8000093340308952E544B390017F20D0000AA
:101BB800FBFF669490F400910903002371F00AE09A
:101BC800009329030091090300931903009134033A
:101BD800689404F906F90093340308952E544B4190
:101BE80000170D0E0000FBFF669490F400910A03A5
:101BF800002371F00AE000932A0300910A0300937E
:101C08001A0300913503689400F902F9009335032B
:101C180008952E544B420017280E0000FBFF6694CF
:101C280090F400910B03002371F00AE000932B035A
:101C380000910B0300931B0300913503689404F98A
:101C480006F90093350308952E544B430017430EAD
:101C58000000FBFF669490F400910C03002371F0E0
:101C680004E600932C0300910C0300931C030091DD
:101C78003603689400F902F90093360308952E5448
:101C88004B4400175E0E0000FBFF669490F4009131
:101C98000D03002371F004E600932D0300910D035A
:101CA80000931D0300913603689404F906F9009324
:101CB800360308952E544B450017790E0000FBFF9C
:101CC800669490F400910E03002371F004E60093EB
:101CD8002E0300910E0300931E03009137036894AE
:101CE80000F902F90093370308952E544B46001764
:101CF800940E0000FBFF669490F400910F030023FC
:101D080071F004E600932F0300910F0300931F0363
:101D180000913703689404F906F90093370308958E
:101D2800462E00179C0E0000FCFF0FEF602E089552
:101D38005A2E0017A30E0000FCFF66240895505089
:101D48004117B10E0000FCFF93FF0895977FFDD562
:101D5800063920914F0351D0089550505517BF0EA2
:101D68000000FCFF93FF0895977FEFD50639209177
:101D7800530343D0089550505617CD0E0000FCFF72
:101D880093FF0895977FE1D506392091540335D004
:101D9800089550505917DB0E0000FCFF93FF08957B
:101DA800977FD3D506392091510327D008954E4FF8
:101DB8005017E10E0000FCFF089546494C4C0017EF
:101DC800F90E0100FBFF70E0D1E0C0E0D0934203C0
:101DD800C0934303B1E0A0E0FEE0E0EE60D37A9563
:101DE800E9F70E94A002A6D20895504253170B0F9C
:101DF8000000FCFFAAD50608262D78E0221F42D550
:101E080011E308F010E32CD57A95C1F708954B45F6
:101E180059171F0F0000FCFF13D5112309F408956B
:101E28001F3209F008959DD4F89408E00EBF0FEF13
:101E38000DBF7894B8C152554E173C0F01000000F1
:101E4800FDD1F0E2E2E5F695E79529D343D4FFE228
:101E5800EAEA2ED5F89408E00EBF0FEF0DBF78948C
:101E6800B42DA52DFD91ED914B2E5A2E0995F8CF45
:101E780045583017430F010000001DD0E7CF3F172A
:101E88004F0F010000002CD4FBE2ECEE11D569D411
:101E980027D450D208952F175A0F01000000F89444
:101EA80008E00EBF0FEF0DBF78947DC1554630177F
:101EB800680F010000000E94A00247D5180210D543
:101EC800FFE2E2EEF5D40895494E53178C0F010056
:101ED8000000B4D1B0914203A0914303D2E0CFE512
:101EE800CA1BDB0BD695C7952C2EDD91CD91FD91A4
:101EF800EC910FEFA00F0FEFB01FDD93CD93DF2F05
:101F0800CE2F2A94A1F7FEE0E0EEC9D213D20895AD
:101F180044454C17AC0F0100000090D1B09142032A
:101F2800A0914303D2E0CFE5CA1BDB0BD695C7953A
:101F38002C2EDB2FCA2F2296F991E991FD93ED9370
:101F48002A94D1F7FEE0E0EEFD93ED93F3D10895E6
:101F580056455217B90F0100FCFF0E946E13F0E0BE
:101F6800E8E60E945C14806808954C4454172410D5
:101F78000100FCFFAFD3F0E3E2E59AD400914803F7
:101F88000F930027009348030E9474130E949F1028
:101F98000E94BC100027009348030E945B10B4D035
:101FA8000E9490130E945E1285FF12C00E942D1499
:101FB8001B35B1F70E942D14133421F4ACD065D031
:101FC800A3D0EECF143461F7A6D068D09DD0E8CF67
:101FD800B3E0A8E31C910E94FC121A3521F4D1D079
:101FE80066D092D0DDCF0E949B121123D1F00E94BF
:101FF800031383FF0DC0877F87FF03C08F770E947D
:10200800BC100E94D6128AD060D03FD07DD0C8CFF5
:102018000E94A914182DF0E3E4E00E945C14806883
:10202800BFCF0E94A91416060E9474140F91009342
:1020380048030E9474130E949E110E949A130895E7
:10204800454E441748100000FCFF01E0402E00E018
:10205800502E10915E0300915C03102B10935E03C9
:1020680000915D030095012300935E0310916103C5
:1020780000915F03102B109361030091600300959A
:1020880001230093610308951A0000914803039502
:10209800003109F40027009348030895009148038C
:1020A8000A950F3F09F40FE000934803089570E183
:1020B8000027009348037F9308D0E7DF7F917A9544
:1020C800D1F70027009348030895B3E0A0E0CFE0DC
:1020D800DBE0222410914803112361F007E0C00FD0
:1020E80011962394022D083019F4CFE005E0D00FA3
:1020F8001A95A1F70E94C0141D91C12FDD270E94D7
:102108003D130E94EA1208950E9488140E946910E3
:102118000E94831408950E948314F8CFB3E0A0E0CE
:1021280000914803002319F011960A95E9F70091E8
:102138004E030D9308950E94A914090FF0E3EEE7EA
:102148000E945C140E94A9140A0FF0E3E6EE0E94B4
:102158005C140E94A9140E0FF0E3E2EB0E945C14D9
:102168000E94A9140F0FF0E3E6EE0E945C14089594
:102178000E946A13F0E3E2E50E945C140E94741462
:102188000895B3E0A0E020E100270D932A95E9F730
:10219800089508E00EBF0FEF0DBF0E94EF130E94D5
:1021A80063020E949102CCD286DEC4D023DEFAD12B
:1021B800B3D280D185FF1BC04CD31B35C9F749D397
:1021C800123411F463D0F4CF113411F470D0F0CF7D
:1021D800133419F44ED0AED0EBCF143419F43CD0EC
:1021E800A9D0E6CF113319F434D370D0E1CF87FFEB
:1021F80002C08F779BD29BD11123D1F22FD228F422
:10220800FED183FF15C0877FD1CF022D063080F421
:1022180010D170F0FF93EF930995EF91FF910ED0D5
:1022280000914603013009F4C1CF39D12FD0BECF78
:1022380051D2F0E3E4E03CD38068BACF04D05FD059
:102248006CD001D008950091490310914803009380
:10225800480310934903089510914103103029F061
:1022680000EE100F10934103089510EE10934103F0
:10227800089510914103103E29F000E2100F1093C9
:1022880041030895112710934103089563D00091E5
:102298004903039500934903003239F4002700935A
:1022A80049034DD0E6DF46D0089549D0089552D06D
:1022B800009149030A95009349030F3F29F40FE160
:1022C80000934903C9DF36D03AD0089543D010911E
:1022D8004E0320E26DD220934903112329F0177091
:1022E800C5E0110FCA95E9F7C12F009141031027E6
:1022F80021F0C09341031ED0089521D00895D091B4
:102308004003C091410300914803C00F0027D01F2C
:10231800D0934403C09345030895D0914403C091DA
:102328004503CC0FDD1FC50DD41DD0934203C093C8
:10233800430308950E94B2110E94A31108950E94B8
:1023480088140E9427110E94C4110E9483140E94BD
:10235800271108950E948314F4CF089520E20027DE
:10236800009348032F930CD00091480303950093E2
:1023780048032F912A95B1F7002700934803089541
:102388000DD0BDDFCADF03D11DD018F42ED042D046
:102398000895F0E3EAE20E945C140895C8E0D9E0E9
:1023A800109148031770D10F10914803187139F034
:1023B80016951695169503E1C00F1A95E9F70E9430
:1023C800C0140895D0914203C0914303F991E99153
:1023D80004E0E01B00E0F00BEE0FFF1FE16004914A
:1023E8000731089409F088940895D0914203C09168
:1023F8004303F991E99101E0E01B00E0F00BEE0FD7
:10240800FF1F25911491F695E795E20FF11FEE0F46
:10241800FF1F0895FF93EF93FFE2E8EF49D2EF9192
:10242800FF9101D008951591173111F019D2FBCF02
:102438000895F5E0E8E5B3E0A8E3222D1591312EE3
:10244800103061F0173169F00AE1102711F408948F
:1024580008951D910E94FC12132561F01591173102
:10246800E9F715911F9315911F93FF91EF91EE0FC7
:10247800FF1FE1CF2A9511F71491103009F4319616
:102488001591173159F73296B3E0A6E415911D93CB
:1024980015911D933296F695E79588940895D091F5
:1024A8004203C0914303F993E993D0934203C09345
:1024B800430308950E94A2120E942D141D3021F496
:1024C800B3E0A8E380610895183141F4222D222356
:1024D80089F30E9455142A95E1F7ECCF183051F48E
:1024E800222D222349F32A95222E0E94551400E01A
:1024F8000E93E2CF193039F437E010E20E949112BE
:102508003A95E1F7D9CF1B3111F48062089538D09C
:1025180086FF01C0089501D0CFCF222D283009F4BD
:1025280008952395222E1D930E94341408951D9119
:10253800103011F4889408950894089500272224EF
:1025480028E0B3E0A8E30D932A95E9F7B3E0A8E300
:102558008F7C089522E5B3E0A0E100270D932A952A
:10256800E9F708950027602E00934F030093530363
:102578000093540300935103D02EE02EF02E0895BB
:102588008064103218F01F3708F48F7B0895D091BB
:102598004403C09145030E943D130E94EA120E9421
:1025A80044140895D2D10627B3E0ACE4DD91CC9170
:1025B8000E943D130E94E11208951F2D13D01E2D75
:1025C8000E94EE121D2D0E94EE1208951E2D0E94EB
:1025D800F612F8CF312E12950E94F612132D0E9492
:1025E800F61208951F7000E3100F0E943414089526
:1025F800113620F01B3710F4889410420895877F15
:10260800722D763068F40E94151350F4B3E0ACE4F0
:10261800DD93CD93CC93DD2311F00FEF0C938860FD
:102628000895DD27CC27B3E0A8E31D910E9432135B
:1026380068F4312E0E94C11368F0332D22270E94BE
:10264800D31340F07A9589F7089408958894DD2784
:10265800CC2708950894DFEFCFEF0895312E0E941C
:10266800FC12105318F01A3008F408958894132DAA
:1026780008953FEFF32EF394C051D742E0F7C05FBF
:10268800D84D20EF205FC85ED340E0F7C851DC4F3B
:10269800E32EE394C456D040E0F7CC59E22A20EF69
:1026A800205FCA50E8F7C65FD22EDC2A0895312E83
:1026B8009FDF105340F01A3028F017501A3018F0E6
:1026C800103108F40895132D889408950E94A914D0
:1026D800180203C00E94A91418160E9474140895C1
:1026E8000E94A91408010E947E130F000E94A914D9
:1026F80008010895FF91EF91EE0FFF1FEE7F2591DE
:102708003196F695E795EF93FF930E9474140E9413
:102718006F142A95D1F708950E94A91416060E94ED
:102728007414F0E3E2E20E945C1408950E94A91474
:1027380018020E947414FFE2E2EE0E945C140895ED
:102748000E9466140E94A9140101FAE2EAE20E94BA
:102758005C140E94A9141701FBE2EAE90E945C14C8
:1027680008950E94A914183AFFE2ECEC0E945C1448
:102778000E942D140E946E1308950E94CF1350F0EA
:10278800DF932F91CF933F9106D020F004D010F023
:102798000E94D31308958894CC1FDD1F0895C30F9A
:1027A800D21F08950F930FEFA00FB01F0F91089538
:1027B8003F937F93331B79E0111F7A9521F4232FE0
:1027C8007F913F910895331F321B18F4320F88947C
:1027D800F3CF0894F1CFF894A89504B7007004BF1C
:1027E8000091600008610093600000E000936000C1
:1027F800789408951F93129501D01F911F7070E36C
:10280800170F1A3310F077E0170F0E943414089549
:1028180024E60E94DC13112311F00E9420141AE010
:102828001F932F931F912F910E94DC130E94201455
:102838001F932F931F912F9110630E9434140895B2
:102848000091C00007FF03C01091C600089511272A
:1028580008950091C00007FFFCCF1091C6000895AD
:102868000091C00005FFFCCF1093C600089500D06A
:102878001F931DE00E9434141AE00E9434140AC009
:102888000E9446141F9310E205C01F9319E002C06E
:102898001F9317E00E9434141F9108951F931CE2A0
:1028A800F9CF1F930E9479140E9474141F91089500
:1028B8001F9315911A3111F41F9108951030C9F31F
:1028C800CFDFF7CFFF93EF93F9E2E2EA0E945C14BF
:1028D800F9E2ECEA1DC0FF93EF93F9E2EAE918C0C8
:1028E800FF93EF93F9E2E0EB13C0FF93EF93F9E264
:1028F800EEE90EC0FF93EF93F9E2E4EB09C0FF9312
:10290800EF93F9E2EAEB04C0FF93EF93F9E2EEEB01
:10291800CFDFEF91FF910895FF93EF93F9E2E4EC95
:10292800F7CFFF93EF93F9E2E8ECF2CFFF93EF9341
:10293800F9E2EAECEDCFFF93EF93F9E2E2EDE8CFAD
:10294800FF93EF93F9E2E6EDE3CF0E949014FF9135
:10295800EF918894EE1FFF1F15910E940C140E949E
:10296800951415910E940C140E949A148894F79556
:10297800E795EF93FF9308950E9490141D2F0E94EE
:102988000C140E9495141C2F0E940C140E949A1477
:1029980008951B5B421A1B5B441A1B5B481A1B5B9E
:1029A800304A1A001B5B4A1A1B5B4B1A1B5B316DC2
:1029B8001A001B5B6D1A1B5B376D1A001B5B1A0034
:1029C8003B1A481A1B5B314D1A001B371A001B387B
:1029D8001A00F999FECFD2BDC1BD00BDF894FA9A8C
:1029E800F99A78940895F999FECFD2BDC1BDF89AA5
:1029F80000B50895F999FECFC1B5D2B52196C1BDEC
:102A0800D2BD00BDF894FA9AF99A78940895F99984
:102A1800FECFC1B5D2B52196C1BDD2BDF89A00B5D9
:102A28000895202020202020202020202020202041
:102A380020202020203C3C3C3C202044656D6F2019
:102A48002D207520542049204C204520202D202061
:102A580041546D65676133323820203E3E3E3E0D5D
:102A68000A002D2D2D2D2D2D2D2D2D2D2D2D2D2DDE
:102A78002D2D2D2D2D2D2D2D2D2D2D2D2D2D2D2D7E
:102A88002D2D2D2D2D2D2D2D2D2D2D2D2D2D2D2D6E
:102A98002D2D2D2D2D2D2D2D2D2D2D2D2D2D2D2D5E
:102AA8002D2D2D2D2D2D2D2D2D2D2D2D2D2D2D2D4E
:102AB8002D2D0D0A202020202020202020202042FB
:102AC800697420537461636B20202020202020200B
:102AD80020202020202020202020202020202020EE
:102AE80020202020202020202020202020202020DE
:102AF800506F727420427974650D0A0020202020DE
:102B08002020202037203620352034203320322042
:102B1800312030202020202020202020202020208C
:102B280020204461746120202020202020202020A3
:102B38002020202020372036203520342033203212
:102B4800203120300D0A20202020202020203D3D4B
:102B58003D3D3D3D3D3D3D3D3D3D3D3D3D202020F4
:102B68002020202020202020202020203D3D3D3DE9
:102B78003D20202020202020202020202020203D13
:102B88003D3D3D3D3D3D3D3D3D3D3D3D3D3D0D0AD0
:102B98000A002D2D2D2D2D2D2D2D2D2D2D2D2D2DAD
:102BA8002D2D2D2D2D2D2D2D2D2D2D2D2D2D2D2D4D
:102BB8002D2D2D2D2D2D2D2D2D2D2D2D2D2D2D2D3D
:102BC8002D2D2D2D2D2D2D2D2D2D2D2D2D2D2D2D2D
:102BD8002D2D2D2D2D2D2D2D2D2D2D2D2D2D2D2D1D
:102BE8002D2D1A0020204C6F676963202020426930
:102BF8007420537461636B20202020202020202023
:102C08002020492F4F202D20436F6D6D616E647316
:102C180020202020202020202020202020496E74E1
:102C280065727072657465722020202020205469B6
:102C38006D6572730D0A20202D2D2D2D2D2020203D
:102C48002D2D2D2D2D2D2D2D2D202020202D2D2DE0
:102C58002D2D2D2D2D2D2D2D2D2D2D2D2D2D2D2D9C
:102C68002D2D2D2D2D2D2D202020202D2D2D2D2DC0
:102C78002D2D2D2D2D2D2D2D2D2D2D2D2D202020A3
:102C88002D2D2D2D2D2D0D0A202020616E64202044
:102C98002020202020736574202020202020202040
:102CA80020496E3A202041692E20414C692E20414E
:102CB80054692E204144692E20202020202020669F
:102CC800696C6C202065783020202072756E202079
:102CD80020202054516D2E0D0A002020206F7220D4
:102CE80020202020202020636C72202020202020FB
:102CF80020204F75743A202E596E20202020202045
:102D080020202020202020202020202020202020BB
:102D180020696E732020206B6579202020656E6401
:102D2800202020202E546B6D0D0A202020786F72F1
:102D380020202020202020647570202020202020A2
:102D480020566972743A2020556E2E2C202E556E0E
:102D58002C20566E2E2C202E566E2020202020202F
:102D68002064656C202020202F202020207665728A
:102D7800202020202E54526D0D0A202020202120B2
:102D88002020202020202064726F702020202028FE
:102D980069203D20302E2E352C206E203D20302EEF
:102DA8002E372C206D203D20302E2E662920202005
:102DB80020203F20202020202020202020202020EC
:102DC80020202020206C64740D0A2020206E6F7053
:102DD80020202020662E2C207A2E2C202121202015
:102DE80020202020202020202020202020202020DB
:102DF80020202020202020202020202020202020CB
:102E080020202020202020202020202020202020BA
:102E1800200D0A0A20202D2D2D2D2D2D2D20427913
:102E2800746520436F6D6D616E6473202D2D2D2D9B
:102E38002D2D2D2020202020202D20466C69702F3C
:102E4800466C6F70202D20202020202D2D2D204312
:102E58006C6F636B2050756C736573202D2D2D0D71
:102E68000A0020202050412E20202E5059202020BA
:102E780050552E20202E5055202050562E202E50B2
:102E88005620202020202E536D20202E526D2020E9
:102E980020516D2E2020202020636C6B612E202075
:102EA80020636C6B622E2020636C6B632E0D0A000E
:102EB80020202050504120205042532020205050A4
:102EC8005520205050562020505059202020202096
:102ED80020202020202020202020202020202020EA
:102EE80020202020202020313030206D73202036F3
:102EF8003030206D7320312E3820730D0A0A2020BF
:102F080047726F756E6420443920746F20696E763D
:102F1800657274206F75747075747320202020207A
:102F28002020202020202020202020202020202099
:102F3800202054696D6572733A2054302E2E5462E5
:102F480020287365636F6E6473290D0A2020202082
:102F58002020202020202020202020202020202069
:102F68002020202020202020202020202020202059
:102F78002020202020202020202020202020202049
:102F8800202020202020202054632E2E5466202824
:102F98006D696E75746573290D0A1A002020203F2B
:102FA800001A2A2A2A2052756E6E696E6720557398
:102FB80065722046696C652050726F6772616D207A
:102FC8002A2A2A1A2020537472696B6520616E7947
:102FD800206B6579202D2D3E201A2A2A2A20557328
:102FE80065722046696C652030202A2A2A001A005A
:102FF800202020202008080808081A0020202A2A53
:103008002A20556E7265636F676E697A6564204918
:103018006E70757421202A2A2A1A456E7465723AD0
:10302800201A2E2E2E2E2E1A20202053746F7269ED
:103038006E67205546302C20706C6561736520776B
:10304800616974202E2E2E201A002A2A2A204C6FFD
:1030580061642074696D6572732C205A20636C65F5
:10306800617220616C6C2C203C43523E206578696B
:1030780074202A2A2A1A5430202020202054312053
:1030880020202020543220202020205433202020AB
:103098002020543420202020205435202020202097
:1030A8005436202020202054371A5438202020203D
:1030B8002054392020202020544120202020205432
:1030C8004220202020205443202020202054442027
:1030D800202020205445202020202054461A3D3D01
:1030E8003D3D3D3D3D3D3D3D3D3D3D3D3D3D3D3D08
:1030F8003D3D3D3D3D3D3D3D3D3D3D3D3D3D3D3DF8
:103108003D3D3D3D3D3D3D3D3D3D3D3D3D3D3D3DE7
:043118003D3D1A001F
:00000001FF
